:020000041000EA
:1000000000B5324B212058609868022188439860DF
:10001000D860186158612E4B002199600221596106
:100020000121F02299502B49196001219960352056
:1000300000F044F80222904214D00621196600F024
:1000400034F8196E01211966002018661A6600F04E
:100050002CF8196E196E196E052000F02FF8012189
:100060000842F9D1002199601B49196000215960AB
:100070001A491B48016001219960EB211966A021F2
:10008000196600F012F800219960164914480160C1
:100090000121996001BC002800D000471248134993
:1000A000086003C880F30888084703B5996A0420EC
:1000B0000142FBD001200142F8D103BD02B5186610
:1000C0001866FFF7F2FF186E186E02BD00000240BE
:1000D000000000180000070000035F00212200005C
:1000E000F4000018222000A00001001008ED00E03C
:1000F00000000000000000000000000074B24E7A12
:1001000000200420F7010010C3010010C5010010F9
:10011000C1010010C1010010C1010010C101001097
:10012000C1010010C1010010C1010010C701001081
:10013000C1010010C1010010C9010010CB01001065
:10014000CD010010CD010010CD010010CD01001037
:10015000CD010010CD010010CD010010CD01001027
:10016000CD010010CD010010CD010010CD01001017
:10017000CD010010CD010010CD010010CD01001007
:10018000CD010010CD010010CD010010CD010010F7
:10019000CD010010CD010010CD010010CD010010E7
:1001A000CD010010CD010010CD010010CD010010D7
:1001B000CD010010CD010010CD010010CD010010C7
:1001C00000BE00BE00BE00BE00BE00BE00F04BF888
:1001D000103800BEF2EB8871EC5105101C5205106E
:1001E0003402001090A31AE700202149086006C8D5
:1001F00081F3088810471F48006800282FD10DA4FC
:100200000ECC002902D000F012F8F9E71A491B4A77
:10021000002000E001C19142FCD1194988471949E9
:1002200088471949884700BEFDE701C901C29A42C3
:10023000FBD370471C520510C00000207C22002018
:10024000D87305100000042000000420D8730510A6
:1002500000100420001004200000000070470B482C
:1002600002F0D4FF0047EFF30580C0B270470000F2
:1002700008ED00E0000000D08022002034EA0020D9
:10028000F98F0010DD1F001021910010575600005B
:1002900006005250ABB3605320D8011006005250F4
:1002A000861C030230D80110060052505422A29D31
:1002B00038D8011005005250DE65F468D873051077
:1002C000F8B5C04610B5064C2378002B07D1054B76
:1002D000002B02D0044800E000BF0123237010BDB2
:1002E000882400200000000070C20110044B10B5EB
:1002F000002B03D00349044800E000BF10BDC046F6
:10030000000000008C24002070C20110F0B54E46A1
:100310004546DE465746E0B58FB01E00019318AB48
:1003200020CB0B91197807230C91297806950B4067
:100330005C1EA341C90859186B780791002B00D1A6
:1003400083E0002900D180E0013A0D920122F10002
:100350009246089106320021934604000A910A98B9
:10036000069A84460C99D2788A1A53430199079ABF
:10037000634453430A0042430B9805338446624466
:1003800002928C460A000993534600210D989B1A4D
:100390006044049003910593099A069B9446039A3E
:1003A00063449B5C019D984608239C46029B4646FD
:1003B00099464D44A946049F0AE06346013BDBB2DF
:1003C0009C46019B7608984663464744002B29D0FB
:1003D00053463342F1D0059B9846019BB844002B0D
:1003E000EBD035000299237842468B4215D96078CC
:1003F00082420CD2D00843435846564610408640AD
:100400003000E6685B18F65C3043E668F054BA42A8
:1004100003D0237801328B42E9D801314945E2D13A
:100420002E00CAE70899049A8C46039B6244049202
:10043000079A013303939A42AED10A9A069B01327E
:100440005B78D2B20A929A4289D30FB0F0BCBB4615
:10045000B246A946A046F0BDF0B5DE464546574631
:100460004E46E0B58BB01F00149B06009B46D4B2ED
:10047000D30815005A46C8B2DBB2307058437470C6
:100480003061B370F7707260013088460BF036F857
:10049000F060002861D00022314B013C0393314BC6
:1004A00001300493304BF0600593304B0693304B92
:1004B0000793304B089303AB1A761C71327A002AEB
:1004C0003AD114226D005A72A8453EDD02225A73B9
:1004D000EF321C005A7425236B449A46264B02AD1A
:1004E0009846264B99460BE0431C03D141462448CD
:1004F0000BF044FA0134A24516D07368F7789B4696
:10050000002322782B706A70390000932A0002338E
:1005100058461AF083FA831CE6D141464846013416
:100520000BF02CFAA245E8D101200BB0F0BCBB4681
:10053000B246A946A046F0BD10226D005A72A845E9
:1005400007DC02325A731032C3E712225A73DF32C9
:10055000BFE702225A732032BBE73061E5E7C046AD
:10056000AED580A800D300408D00A1C8DA0081FF7D
:10057000D900DB30A4A6AF2070C2011080C20110E8
:10058000A0C20110030010B50021C0681A690AF06A
:10059000E5FF10BDF0B54E4645465746DE46E0B590
:1005A00083B00C9D81462C78924698460E00002C14
:1005B00016D05F00104B47449B467F002300203B32
:1005C00001355E2B13D85B463100019400935246EF
:1005D00043464846FFF79AFE2C78F619002CEDD1D9
:1005E00003B0F0BCBB46B246A946A046F0BD2C788D
:1005F000F619002CE2D1F3E7C0C20110F0B5CE46E7
:1006000047460600112080B587B0042200216844C7
:100610000AF0A4FF212304AC327823700133E37085
:10062000531EA370B378013B6371402A03D120238A
:1006300063703F33A3701627214B6F449846214BBC
:1006400003AD994608E0431C03D141461E480BF018
:1006500095F90134A74213D0002322782B706A70D9
:10066000F17800932A00023370681AF0D7F9831CDE
:10067000E9D14146484601340BF080F9A742EBD15D
:1006800040220024F368013B1A703369F268013399
:10069000F1787068013A00941AF0C0F9831C0AD00E
:1006A000431C03D1094908480BF068F907B0C0BCE6
:1006B000B946B046F0BD054902480BF05FF9F5E7D1
:1006C00070C2011080C20110A0C20110B0C201109E
:1006D000D0231B065B68012210B51B0504D47D499D
:1006E0000B78002B00D1E7E07B4BD022120652683A
:1006F000120566D5774A1178002962D01968002959
:100700005FD111700522D0211A60090649680120C5
:10071000724AC90462D5D02109064968C90400D4C7
:10072000AAE06C494878002800D1A5E05868002864
:1007300000D0A1E0487005215960D0210906496820
:10074000012089045ED463498C78002C5AD19C68BE
:10075000002C57D1887062498870052199606149E1
:100760001160D02109064968012049045FD4594924
:10077000CC78002C5BD1DC68002C58D1C87058496B
:10078000C8700521D96057491160D0210906496810
:100790000120490660D44F490C79002C5CD11C69BA
:1007A000002C59D108714E490871052119614D4B32
:1007B00013601368002B02DD1368013B13600120F6
:1007C00010BD1A68002A02DD1A68013A1A60434A0D
:1007D000D021090649680120C9049CD43D494C78C0
:1007E000002C98D15C68002C95D148703C49487029
:1007F000052159603B4901201160D0210906496853
:100800008904A0D5D0210906496889043CD531491D
:100810008878002838D09868002835D1887005215C
:100820009960D02109064968012049049FD5D0214B
:100830000906496849042FD52649C87800282BD0D5
:10084000D868002828D1C8700521D960D0210906B0
:100850004968012049069ED5D02109064968490604
:1008600022D51C49087900281ED0186900281BD100
:100870000871052119619CE75968002900DC5CE7D3
:1008800059680139596058E79968002900DC68E720
:1008900099680139996064E7D968002900DC74E738
:1008A000D9680139D96070E71969002900DC80E74F
:1008B0001969013919617CE7074B1868002800D0D5
:1008C00013E70A7006490A70052206491A60034AAE
:1008D00011607DE7942B0020802B002078290020D8
:1008E000782B00208813000010B5080014000029A0
:1008F0000BD00B68536019F05DFC010005480BF04C
:100900003DF80122044BE25410BD04480AF094FF64
:10091000F7E7C046A0C401101A080000B4C40110D3
:1009200070B508F00DF800290CD0FA2200239200CF
:100930000AF000FAFA25114CAD002368C01AA8424B
:100940000BD870BDFA2189000AF0B2F9FA250B4CD8
:10095000AD002368C01AA842F3D907F0F1FF0029BF
:1009600004D129000AF0A4F92060EAE7FA22002362
:1009700092000AF0DFF92060E3E7C046DCE90020DE
:1009800070B505001100244814000AF0F7FF234B4E
:10099000EA58944680226444EC50120194420CDBE5
:1009A0001F496A5801326A50092A08DC00221D4991
:1009B0001D486A50EA500AF03FFF002070BD1B48F6
:1009C0000AF03AFF8123012228681B01EA5400281B
:1009D000F3D0002110F05AFA00220021286810F00C
:1009E0006BFA0021286810F05BFA0021286810F0EB
:1009F00051FA0021286810F059FA286810F0F8FE22
:100A0000011E02D100232B60D7E709480AF0B6FF88
:100A1000286810F061FBF5E7C8C401100C0800005D
:100A2000140800000808000004C50110DCC401100F
:100A3000E4C401104018C0B21F2806D07E2802D896
:100A40001E2804D970472020FCE70020FAE77E200A
:100A5000F8E7C046F0B557464546DE464E46E0B597
:100A600089B002AF1D00F860282318201B18DB197D
:100A700001CB1C78B860002C45D000237B61093382
:100A80003B61D0231B0608269A46114379606A46CB
:100A90003B7CEB4699460733DB08DB00D31A9D46C7
:100AA00002AB1D7098467B6909209C46B9683200EC
:100AB000614468440AF058FD8022514692028A61DE
:100AC000142007F04FFE002100914B464246796802
:100AD000F86819F0A3FF142007F044FE8022514665
:100AE00092024A617B69A41B9B19AD19DBB2E4B287
:100AF000DD46EDB27B61072CC9D8002C03D0631C06
:100B000026003B61C3E7BD4607B0F0BCBB46B2461A
:100B1000A946A046F0BDC04610B504001B480AF027
:100B20008BFE01211A4849420AF028FF8123012245
:100B30001B01E25423680020002B1BD01800002169
:100B400010F0A4F900220021206810F0B5F900216E
:100B5000206810F0A5F90021206810F09BF92068AA
:100B6000002110F0A3F9206810F042FE002802D105
:100B70000023236010BD010006480AF0FFFE206834
:100B800010F0AAFA0D204042F2E7C04624C5011039
:100B900034C50110E4C401100B0070B504000D0051
:100BA0000D3300D170BD1B480AF0E8FE002D25D1A1
:100BB00019480AF041FE8123012220681B01E254FA
:100BC0000028EFD0002110F061F9002200212068F8
:100BD00010F072F90021206810F062F900212068FD
:100BE00010F058F90021206810F060F9206810F02A
:100BF000FFFD011E07D100232360D3E7290007482A
:100C00000AF0BCFED7E706480AF0B8FE206810F0EC
:100C100063FAF0E744C50110DCC4011034C50110CB
:100C2000E4C4011070B50400151E04D101221D4B4F
:100C3000C254002070BD11001B480AF09FFE29001D
:100C40001A480AF09BFE812301221B01E25423680B
:100C50000020002BEED01800002110F017F9002220
:100C60000021206810F028F90021206810F018F900
:100C70000021206810F00EF92068002110F016F90C
:100C8000206810F0B5FD002802D100232360D1E7D1
:100C9000010007480AF072FE206810F01DFA0D20CE
:100CA0004042F2E71808000058C5011034C5011091
:100CB000E4C40110F8B5140005000E001A00002C61
:100CC00027D02189002904D120000FF009FA002043
:100CD000F8BD2A480AF052FE294B2189E858083B02
:100CE0001B1A9FB20A1CB94211D8290008310918F1
:100CF0000023200092B20FF00DFB214BEA589446DE
:100D00006044E850218930000FF05AFDDCE71A1CDE
:100D1000EBE701211B4849420AF030FE8123012202
:100D20001B01EA542B680020002BD1D018000021B1
:100D300010F0ACF800220021286810F0BDF8002166
:100D4000286810F0ADF80021286810F0A3F8286892
:100D5000002110F0ABF8286810F04AFD002802D1FD
:100D600000232B60B4E7010007480AF007FE28685B
:100D700010F0B2F90D204042F2E7C0466CC50110F8
:100D80000808000034C50110E4C4011010B52A4958
:100D90002A4819F019FE0321022006F0F5FB032171
:100DA000032006F0F1FB00220121022006F004FCE2
:100DB00000220121032006F0FFFB2149214819F000
:100DC00003FE0321142006F0DFFB0321152006F0AB
:100DD000DBFB112006F0E4FCD02380221B069202EC
:100DE0005A620B205A6106F0DBFC002201210B2025
:100DF00006F0E2FB0C2006F0D3FC002201210C20BF
:100E000006F0DAFB0D2006F0CBFC002201210D20BC
:100E100006F0D2FB0E2006F0C3FC002201210E20BA
:100E200006F0CAFB062006F0BBFC002201210620CA
:100E300006F0C2FB10BDC046801A0600141A00203E
:100E4000400D03000C1A0020F0B54F464646D6462A
:100E50000C002021C0B582B002AF0600781802C88D
:100E600014430578A0462C006A1C91466A46083453
:100E7000E408E400121B954602AA92461370002D66
:100E800004D009202A0068440AF06EFBD024802593
:100E90002406AD02A561142007F064FC002352462D
:100EA0004146300000934B4619F0B8FD142007F07E
:100EB00059FCBD466561E0BCBA46B146A846F0BDE6
:100EC000F0B557464546DE464E46E0B589B002AF1E
:100ED0001D00F860282318201B18DB1901CB1C7893
:100EE000B860082C45D900237B6109333B61D023CE
:100EF0001B0608269A46114379606A463B7CEB46FE
:100F000099460733DB08DB00D31A9D4602AB1D7000
:100F100098467B6909209C46B96832006144684460
:100F20000AF022FB8022514692028A61142007F0C7
:100F300019FC002100914B4642467968F86819F087
:100F40006DFD142007F00EFC8022514692024A618A
:100F50007B69A41B9B19AD19DBB2E4B2DD46EDB28F
:100F60007B61072CC9D8002C2ED0631C26003B6166
:100F7000C3E711436A46631C9A460733DB08DB006C
:100F8000D31AE9469D4602AB0E0098461D70002C10
:100F900005D001000920220068440AF0E5FAD024B7
:100FA00080252406AD021420A56107F0DBFB002399
:100FB0000093424653463100F86819F02FFD142083
:100FC00007F0D0FB6561CD46BD4607B0F0BCBB461F
:100FD000B246A946A046F0BDF0B557464E46454636
:100FE000DE46E0B516001D0087B010AB04CB82468C
:100FF0001C780F00029223002A0031002E4803942F
:101000000AF0BCFC082C28D90823984602AB3E43C2
:101010009C460F27B14600266744029B3D709B46C5
:1010200001233A0049460093504619F0F7FC00238B
:10103000B34400935A4643464946504619F056FD7C
:101040004346E41A45444644E4B2EDB2F6B2072CF6
:10105000E3D8002C15D0A046DFE702AB9C460F2258
:10106000012362443E43157031000093504619F04D
:10107000D5FC0023310000935046039B029A19F0DF
:1010800035FD039B002B0BD01E0000240B4D029F4F
:10109000395D28000A0001340AF070FCA642F7DC32
:1010A00007480AF0C9FB039807B0F0BCBB46B2463C
:1010B000A946A046F0BDC0467CC50110A4C50110DC
:1010C000D8C70110002310B5214C82B02372214BE8
:1010D00040228021009320003C23FFF7BDF920002F
:1010E000FFF750FA2000FFF74DFA1B4B200000934A
:1010F000002202230821FFF74DFA184B200000932D
:10110000102202230821FFF745FA154B20001B6827
:101110002422009300210123FFF73CFA114B200009
:101120000093302201230021FFF734FA0E4B3022C6
:101130001B684621200000930123FFF72BFA2000B3
:10114000FFF75CFAFA20C00007F00CFB02B010BDFC
:101150001C360020141A0020ACC501108016002097
:101160009C160020B4C50110D4180020002330B50F
:10117000244C83B02372244B40228021050000932D
:1011800020003C23FFF768F92000FFF7FBF920005F
:10119000FFF7F8F91D4B00220821200000930223DD
:1011A000FFF7F8F91A4B10220093082102232000C0
:1011B000FFF7F0F9002D14D0012D10D0154B00933E
:1011C0002422012300212000FFF7E4F92000FFF78B
:1011D00015FAFA20800007F0C5FA03B030BD0E4BB7
:1011E000EDE70E4B20000093242201230021FFF79E
:1011F000D1F90B4B30220093002101232000FFF78F
:10120000C9F9E3E71C360020141A0020ACC5011010
:1012100080160020E8C50110D4C50110C0C501101A
:10122000F4180020F0B5C64600B5CB4C82B0237848
:10123000002B56D1C94D2F68002F0FD1C84A117904
:10124000C8B200293CD0C74B17711B680A332B600A
:101250000123237002B080BCB846F0BD0A2F00D134
:101260009DE03A00643A032A00D8A7E00B2F00D192
:1012700013E16E2F00D1C5E16F2F00D12DE10C2FAE
:1012800000D165E20D2F00D1BCE23900823903297B
:10129000E0D8B34A1079002801D000F055FCD0788E
:1012A000C5B2002801D100F048FC0023D370AE4B3A
:1012B0001A6801321A60132A10DD00221A600DE04C
:1012C0001378D9B2002B00D185E01070A54B1A68B5
:1012D000013A1A60002A01DA03221A6001232370FE
:1012E000B8E70023A14E23703000FFF74BF99B4D68
:1012F0002B68002B7CD00A2B00D1DAE0642B00D1C4
:101300009FE1652B00D1B7E1662B00D1D4E1672BBB
:1013100000D1FFE10B2B00D12AE26E2B00D154E16A
:101320006F2B00D190E20C2B00D1D6E20D2B00D117
:101330001EE3822B00D1CDE3832B00D1E3E3842B8A
:1013400001D100F059FC852B00D089E0884B9846EC
:101350004246884B83CB83C203CB03C21B884146E2
:1013600013805E22804B30001B68CA54824B0022DF
:10137000009300210123FFF70DF9804B4233300029
:101380000093182201230021FFF704F94346242289
:101390000093002101233000FFF7FCF860E0704B60
:1013A0001A79D1B2002A5FD000216E4A19711368F0
:1013B000116064332B60012323704BE7684A117975
:1013C000C8B200295AD000231371664A2B601360FB
:1013D000013323703EE75378002B00D13AE7517078
:1013E000604B1A6801321A60032A00DD65E775E771
:1013F000634B00221B680021009330000123FFF79C
:10140000C9F8604F20232C223B70BB75BB541632A9
:10141000BB54544B00211A68162353433E2230001C
:10142000DA5501230097323AFFF7B4F83B00163340
:1014300018220021300000930123FFF7ABF83B0096
:101440002C33009324220123002130004237FFF780
:10145000A1F800970123302200213000FFF79AF80D
:101460003000FFF7CBF8E6E61A78D0B2002A2BD18D
:101470005A78002A00D1EDE65870B1E71178CEB263
:10148000002923D15178002900D1E3E656707A1C57
:10149000672F00D1B3E02A6020E7314B1A79D1B22F
:1014A000002A41D1DA78D0B2002A00D122E1D970E5
:1014B000FDE6354B00221B6800210093300001231C
:1014C000FFF768F8314F9DE71970FFE610707A1E3C
:1014D000642FE0D167232B6000E7214A1379D9B24A
:1014E000002B00D0CAE1D378D8B2002B00D0E1E0C5
:1014F0009378002B00D094E11378002B00D1BAE34D
:1015000000231370184B224D1A68AB5C1900203968
:101510005E2900D993E00133DBB27F2B00D15F3B22
:10152000AB540123237095E600221A716E232B60C1
:10153000184D6D3B2900237000202B0016311A78BE
:10154000203A5E2A00D9187001339942F7D12A0057
:101550002021153224E0C0466416002080E80020D7
:10156000782B002084D80020BC3A00201C360020B4
:1015700068160020F4C601107CC601100C1600206D
:10158000F8160020A0160020B4180020041800202F
:10159000B8180020F41800201370013A954202D0C8
:1015A00013788B43F8D02900D9480AF0E7F92800CE
:1015B0001AF02EFC0130C0B20190202300225021ED
:1015C000D4480095FFF77CFC44E6D34B984642464E
:1015D000D24B83CB83C203CB03C21B88414613800B
:1015E0005E22CF4B30001B68CA54CE4B00221B68D2
:1015F000002100930123FEF7CDFFCB4BBFE6642310
:101600002B606BE6C94A1379D9B2002B00D0C9E030
:10161000D378D8B2002B4DD19378D9B2002B00D01B
:10162000FFE01378002B00D1C9E2BD4B1170BE4D15
:101630001A68AB5C190020395E2900D86BE72023BB
:101640006EE7BB4B00220021300000930123FEF720
:10165000A1FFB84B18220021300000930123FEF7B0
:1016600099FFB54B24220093002101233000FEF79F
:1016700091FFB24B0093EDE6B14B00220021300008
:1016800000930123FEF786FFAA4B18221633002190
:10169000300000930123FEF77DFFA74B2422163371
:1016A0000093002101233000FEF774FFA34B163393
:1016B0000093CFE6D170FAE5A24B00220021300062
:1016C00000930123FEF766FF9A4B18222C3300216A
:1016D000300000930123FEF75DFF974B24222C334B
:1016E0000093002101233000FEF754FF934B2C336D
:1016F0000093AFE69A78D1B2002A00D193E09870B7
:10170000874B1A68013A1A60002A00DBE6E51422CA
:101710001A60E3E58C4B0022002130000093012386
:10172000FEF738FF834B182242330021300000932C
:101730000123FEF72FFF804B242242330093002128
:1017400001233000FEF726FF7C4B4233009381E6F5
:10175000764A1379D9B2002B00D064E1D378002BFC
:10176000A8D19378002B00D171E200239370C7E7D2
:10177000694B98464246694B83CB83C203CB03C275
:101780001B88414613805E22654B30001B68CA549B
:101790006E4B00221B68002100930123FEF7FAFE26
:1017A0006B4BECE5002313716F332B605E4D6E3B8A
:1017B0002900237000202B0016311A78203A5E2A67
:1017C00000D9187001339942F7D12A00202115322F
:1017D00003E01370013A954202D013788B43F8D09E
:1017E00029005C480AF0CAF828001AF011FB013001
:1017F000C0B2019040230022502146480095FFF7D7
:101800005FFB27E5494A1379002B00D13BE100211A
:101810001171514A1368116083332B6001232370C7
:1018200018E590706CE71A78D0B2002A00D139E13F
:1018300019703B4B464D1A68AB5C190020395E2984
:1018400000D868E620236BE6334B98464246334B7C
:1018500083CB83C203CB03C21B88414613805E2225
:101860002F4B30001B68CA543C4B00221B680021E0
:1018700000930123FEF78EFE394B80E500232B6099
:10188000374D137129000133237000202B001631CE
:101890001A78203A5E2A00D9187001339942F7D19C
:1018A0002A002021153203E01370013A954202D03C
:1018B00013788B43F8D029002A480AF05FF82800F3
:1018C0001AF0A6FA0130C0B2019060230022502124
:1018D00010480095FFF7F4FABCE40F4B98464246D7
:1018E0000E4B83CB83C203CB03C21B8841461380BC
:1018F0005E220B4B30001B68CA541B4B00221B6836
:10190000002100930123FEF745FE184B37E5C04642
:1019100090C601100C1A002068160020F4C60110B1
:10192000BC3A0020F0180020D8180020782B0020A6
:1019300000C60110FC16002054170020AC17002030
:1019400010C6011020C6011030C601100C1900206D
:10195000F4180020A4C6011084D80020D01800205C
:10196000B8180020BCC60110981600208016002070
:10197000E14B30001B680022009300210123FEF799
:1019800009FE20232C22DD4F3000BB541632BB54FD
:101990003B70BB75DA4B00211A68162353433E2275
:1019A000DA5500970123323AFEF7F4FD3B00163377
:1019B00030000093182201230021FEF7EBFD3B00CD
:1019C0002C33300000932422012300214237FEF7FC
:1019D000E1FD30000097012330220021FEF7DAFDFF
:1019E000C84F3000009701230C221C21FEF7D2FDC6
:1019F0003B00163330000093182201231C21FEF710
:101A0000C9FD3B002C3330000093242201231C210C
:101A10004237FEF7BFFD012330221C213000009722
:101A2000FEF7B8FD1CE500232B60B74D13712900AC
:101A30000133237000202B0016311A78203A5E2AD9
:101A400000D9187001339942F7D12A0020211532AC
:101A500003E01370013A954202D013788B43F8D01B
:101A60002900AA4809F08AFF28001AF0D1F90130AC
:101A7000C0B20190802300225021A5480095FFF7B5
:101A80001FFAFFF7E7FB1378002B00D1CFE000230C
:101A900013709B4A1368013B01D413601EE40323B7
:101AA00013601BE45A78002A01D1FFF7D3FB58706A
:101AB000984B994D1A68AB5C190020395E2900D902
:101AC000BDE5013BDBB219001F39481E8141494287
:101AD0000B4025E5914B98464246914B83CB83C200
:101AE00003CB03C21B88414613805E22894B300022
:101AF0001B68CA548B4B0022009300210123FEF780
:101B000049FD804B3BE4854B98464246844B83CB52
:101B100083C203CB03C21B88414613805E227D4BE8
:101B200030001B68CA54804B00220093002101231F
:101B3000FEF730FD734B163321E49078C6B20028CF
:101B400000D1ADE09570DBE50023137116224A4306
:101B50006C4E0133B21810002370002713001630AA
:101B60001C78203C5E2C00D91F7001338342F7D1D2
:101B700013002024153303E01870013B9A4202D071
:101B80001878A043F8D0694809F0F8FE16232C68AD
:101B9000823C6343F61830001AF03AF90130C0B2C3
:101BA00063010022DBB20190502159480096FFF7F3
:101BB00087F90023524A2B601360FFF74BFB5378E1
:101BC000002B01D1FFF746FB00235370514B584DBA
:101BD00019686B5C1A00203A5E2A00D9C4E0013B08
:101BE000DBB21A001F3A501E8241524213406B541E
:101BF00001232370FFF72EFB484B98464246484B83
:101C000083CB83C203CB03C21B88414613805E2271
:101C1000404B30001B68CA54464B00220093002101
:101C20000123FEF7B7FC374B2C33FFF7A8FB5378A3
:101C3000002B01D1FFF70EFB00215170304A1368D1
:101C40000133032B00DC28E71160FFF747FB137813
:101C5000D9B2002B3ED0002313702E4B2A4D1E68A4
:101C6000A85D0300203B5E2B42D80121FEF7E2FE77
:101C70007055FFF733FB5378002B01D1FFF7EAFAD9
:101C800000235370234B2C4D1E68A85D0300203B9E
:101C90005E2B2DD8FF21FEF7CDFE7055FFF71EFB02
:101CA0001078C5B2002849D016701A4A154E15682A
:101CB00016224A43B218505D833F0300203B5E2B3F
:101CC00054D80121FEF7B6FE16237B43F618705553
:101CD000FFF704FB5378002B01D1FFF7BBFA0D4B44
:101CE000094D1E685170A85D0300203B5E2BD1D9C1
:101CF00020207055FFF7F2FA081600205C1800202B
:101D000084D800200C16002080160020CCC60110BC
:101D10000C1A0020BC3A0020F4180020681600209D
:101D2000F4C6011040C6011054C60110E0C60110EF
:101D3000D818002068C60110B81800205078002874
:101D400001D1FFF787FA5570094A0A4E1568162225
:101D50004A43B218505D833F0300203B5E2B05D8F9
:101D6000FF21FEF767FEAFE7202340E72020ABE727
:101D7000BC3A00200C16002010B5044809F05CFDA8
:101D80000121642007F0BAFBFEE7C0460CC7011032
:101D9000F0B5C646060000B501207B4909F0C0FB3E
:101DA000041E00D1E4E000F0CFFF784B271D9846D9
:101DB000774A2300390040460DF044FB050000F04F
:101DC000CBFF0122734BE254002D00D195E06B1D37
:101DD00066D1714D02E0714806F0C4FC07F084FB47
:101DE000635D002BF7D007F07FFB380018F0E2F9B5
:101DF000502201006A4809F0C1FD00200FF058FA96
:101E00002060002800D17BE021000FF03FF80A227B
:101E1000644920680FF050F8634920680FF040F8DB
:101E2000624920680FF036F8614920680FF03EF8EB
:101E30000022604BE25000F087FF502239005E4BD9
:101E400020680EF0F9FC050000F086FF002D2CD074
:101E500001215A48494209F091FD8123012220685D
:101E60001B01E254002845D000210FF00FF800229A
:101E7000002120680FF020F8002120680FF010F8F2
:101E8000002120680FF006F8002120680FF00EF8FE
:101E900020680FF0ADFC011E36D10023236029E03D
:101EA00007F022FB464809F0C7FC2500083507F07B
:101EB0001BFB434632004349280008F087FE2900F7
:101EC000414809F05BFD280019F0A2FF394B82B2AE
:101ED000E05029000123206811F00AFB00281AD1E4
:101EE00007F002FB2D4806F03DFC07F0FDFA20004C
:101EF00009F028FB80BCB846F0BD07F0F5FA72E7A0
:101F0000324809F099FCA3E7314809F037FD206811
:101F10000FF0E2F8C1E701002E4809F02FFD012182
:101F20002648494209F02AFD8123012220681B012D
:101F3000E25400281AD000210EF0A8FF00222068E9
:101F400011000EF0B9FF002120680EF0A9FF00215A
:101F500020680EF09FFF002120680EF0A7FF206888
:101F60000FF046FC011E07D100232360FFF704FF9A
:101F7000194809F061FCBDE7154809F0FFFC20682D
:101F80000FF0AAF8F0E7C0461C080000B8180020BF
:101F9000E9080010190800001A0800008813000062
:101FA00034C70110190B001081090010B50C001086
:101FB000990B001008080000250C001034C5011012
:101FC000B4C4011068C7011098C7011050C70110B0
:101FD000E4C40110A8C7011018C70110F0B5DE460F
:101FE00057464E464546E0B5ED4FCBB005220021A1
:101FF000380009F0B3FA05220021EA4809F0AEFAE8
:1020000014220021E84809F0A9FA0023E74E3360C2
:1020100009F0C0FC18F060FA1F211B2005F0B4FA8B
:10202000002200211B2005F0C7FA00211B2005F02B
:10203000A3FBDF4B1A6880235B015340E022D201EF
:102040001340DC4A1360FEF7A1FEDB4806F08AFB72
:1020500007F0E2FA002800D1BEE2D84809F0ECFB14
:10206000D749D84809F08AFC0123D74C019318AB13
:1020700000220093502100232000FEF7ADFF4822EC
:1020800006AB9B181B78012B02D0FF2B00D0A6E0DB
:10209000CE4809F0D1FB4821022306AA521813703A
:1020A00018AB01260093002320251A0020000831D8
:1020B0000196FEF7C9FEC64F802300225021200062
:1020C00000970195FEF7C6FC2B000022502120004E
:1020D00000970195FEF7BEFC40230022502120000E
:1020E00000970195FEF7B6FC6023002250212000E6
:1020F00000970195FEF7AEFC00233200502120002E
:1021000000970195FEF7A6FC2B003200502120001D
:1021100000970195FEF79EFC4023320050212000DD
:1021200000970195FEF796FC6023320050212000B5
:1021300000970195FEF78EFC07230193A54B002223
:102140005021200000938023FEF77EFE0A23019396
:10215000A14B00225021200000932B00FEF77AFCB7
:10216000082301939D4B002250212000009340231F
:10217000FEF76AFE122310270193994B002250218B
:10218000200000936023FEF765FC964B320050213F
:102190002000009301970023FEF75CFC924B320075
:1021A00050212000009301972B00FEF753FC8F4B2A
:1021B000320050212000009301974023FEF74AFC93
:1021C0008B4B320050212000009301976023FEF7D3
:1021D00041FC3100874807F091F9FFF7CDFD162546
:1021E000854B002250210093200080230195FEF7AB
:1021F000F3FE824B002250210093984620002023BA
:102200000195FEF7E9FE7E4B0022502100939A468D
:10221000200040230195FEF7DFFE7A4B002250217B
:102220000093200060230195FEF7D6FE764B012235
:1022300050210093200000230195FEF7CDFE724B44
:1022400001225B1950210093200020230195FEF705
:10225000C3FE6D4B01222C335021009320004023FC
:102260000195FEF7B9FE684B0122423350210093DD
:10227000200060230195FEF7AFFEFEF723FF06F076
:102280005FFB002900D1ABE1FA220023920008F0A5
:1022900051FD5E4B0421012218605D4B062005F0C4
:1022A000E1F905F0EBFF12AB029300230193594BC8
:1022B000594A009301235B4206F0E8F80123032109
:1022C0000093564A0E330DA818F022F9544D554C80
:1022D00005E0200009F0B0FA374806F043FA28007C
:1022E000514918F07BFE0028F3D0504809F0A4FAB9
:1022F0004F4C05E0200009F09FFA4E4806F032FAF4
:1023000000F028FC0028F5D10020FEF72FFF00F098
:1023100093FA494B9B46494B9946584609F08CFA2B
:102320004146474809F02AFB5146464809F026FB3A
:1023300051464046444B454A00F08CFA002800D1F3
:102340002DE24846962409F077FA64003B78002B8A
:1023500000D169E1002301203B7040427B70BB70DB
:10236000FB703B71FEF702FF0121394807F0C6F808
:1023700006F0E6FA02000B000021364880185941A9
:10238000049005918B4200D914E200D10EE20223A1
:102390009A46314B234F9B46304B984665E0C046EA
:1023A000782B0020942B0020802B002078290020FF
:1023B00000C0044000D00440B80B0000C4C70110A6
:1023C000E8C70110F4C701100C1A00200CC8011056
:1023D000D4CB011020C8011028C8011034C8011046
:1023E00040C8011054C8011068C801107CC8011011
:1023F00090C80110FF7F000080160020F418002014
:10240000D8180020B81800200C160020DCE90020A5
:1024100021090010D106001078ECFFFF00002050C9
:10242000A4240020A4C8011000A1BC33BCC8011022
:10243000CCC8011010270000E4C8011014C9011015
:10244000FCC8011008C901103075000004004000EC
:10245000FFFF7F00000E270734C901104CC901108F
:1024600007F042F83368002B27D0FEF7DBFE07F0B9
:102470003BF83368002BF3D10021280018F046FF09
:10248000041EEDD00100584609F078FA642C06DCF1
:10249000ABE0380009F0D0F9C94806F063F928002C
:1024A000C84918F09BFD0028F3D0404609F0C4F954
:1024B00007F01AF83368002BD7D106F041FA049AD6
:1024C000059B121A8B41002BCFDA0121002000F06E
:1024D00057FA06F035FA02000B000021BA488018BE
:1024E0005941049005918B4200D9CEE000D1C8E05B
:1024F0005146B64809F042FA53461E2B00D1D1E0AE
:102500000DA818F039F80CAA0BA90DA818F010F9AD
:10251000002800D1CAE0012800D139E1AC4809F017
:102520008BF900230B930C9304228021A94B4900C3
:102530001A60A94A13680B42FCD054682404240C86
:10254000200008F079FFA54908F069FF08F09CFF1A
:1025500002000B00069007912100A14809F00EFA35
:102560000C9808F091FF069B079C089009910B9826
:102570000293039408F088FF089A099B0090019148
:10258000984918A808F022FB0C9808F07DFF02007B
:102590000B009548954908F019FB0B9808F074FF5B
:1025A00002000B009248934908F010FB069A079B23
:1025B0009149924808F00AFB0122914B1A7006F0EB
:1025C00093FF18A8FFF7E4FB0021002000F0D8F9E2
:1025D00002239C46E244DFE68A4809F02DF93FE5F4
:1025E000FA21890008F064FB53E60121002000F085
:1025F000C7F918AC04E0280018F004FB207001347F
:10260000280018F0CDFA0028F5D1482206AB20703A
:102610009B181B783D2B1FD07B4809F00DF900213A
:10262000002000F0ADF91BE77B78002B00D091E68D
:10263000BB78002B00D08DE6FB78002B00D089E61C
:102640003B79002B00D085E66420013C06F08AF837
:10265000002C00D07AE660E6280018F0E1FF18A907
:1026600002006A4809F08AF9492206AB9B181878DB
:102670000F2303405A1E022A35D9654809F0DCF8B9
:10268000CDE704998A4200D832E701235B42DC1788
:1026900051464E480493059409F070F953461E2B99
:1026A00000D02DE700F0F0FAFFF766FB0C9C201C31
:1026B00008F0EAFE069007910B9808F0E5FE0290FC
:1026C00003915449201C08F0AAFE8421C90508F092
:1026D0008FFE08F0D9FE069A079B009001914E48A4
:1026E00009F04CF920E71620584306A98C4681468C
:1026F0004A234A4A63444A44494931A808F066FAE1
:1027000006F0F2FE31A8FFF743FB06AA94465223D7
:10271000662263441C00624402E00134944204D007
:102720002378262BF9D10023237006AA944652233E
:102730002D4863441A003B49484408F047FA2200F8
:10274000083213001C3402E00133A34205D019788B
:102750002629F9D100211C00197025483249484426
:1027600008F034FA2200083213001C3402E001336E
:10277000A34204D019782629F9D1002119701F48E5
:102780002A49484408F022FA01221D4B1A7046E7F4
:10279000274809F051F800230B930C93C4E6254811
:1027A00009F04AF80120FEF7E1FCDDE504998A42D0
:1027B00000D8ECE501235B42DC1704930594E6E5C1
:1027C000B80B000000A1BC33000E270700CA01109F
:1027D00078CA011000E0044000C004400210203D0F
:1027E00088CA0110ACCA0110FC160020E4CA01100E
:1027F00054170020F8CA01100CCB0110AC170020B0
:1028000064160020DCC70110E4C9011078C901106A
:10281000C8C901106666E63F1CCA01100C160020EC
:102820008CC9011094C90110A4C90110B8C90110C4
:1028300040CA011028C9011010B5044B0122002123
:102840001B68034804F010FB10BDC046101900209F
:10285000EC2B0020F0B5DE46574645464E46E0B527
:1028600085B01C0093468246884606F069F8FA2235
:1028700006000F00200000230021920008F098FDC0
:102880008019794104000D008F4243D840D043465F
:10289000002B45D0504619F0BBFA0600404619F00F
:1028A000B7FA0300234A31009146002203920292B4
:1028B0005A460192424648460092524604F072FC43
:1028C0008246002817D1A8461B4F0021484604F035
:1028D0008DF8060000F0C0FA2000290005F05EFF28
:1028E0007B6A98450FD8BA6AA24201D298450AD0AD
:1028F00001235B429A46504605B0F0BCBB46B24647
:10290000A946A046F0BD002E11DB032EDDD1F2E773
:102910008642BCD9434601246442E517002BB9D155
:10292000504619F075FA002306009B46BAE7B246F6
:10293000E1E7C046EC2B00200040054010B582B016
:1029400068460C0000F092FA6B460622991C2000A3
:1029500008F00AFE012223789343022213432370D6
:1029600002B010BD044B10B59C4608000349062276
:10297000614408F0F9FD10BD88090000EC2B00202F
:1029800010B50A000100024804F088FC10BDC046E2
:10299000EC2B002070B50F4C0021200019F010FC2A
:1029A000002805D06379012B06D0200019F048FCDF
:1029B000094819F0DDFB70BD084D2B68002B02D0D3
:1029C00000222A6098476B68002BEED000226A60D4
:1029D0009847EAE7DC2B0020D42B0020003F0020A2
:1029E00010B511F00FFF144B1A68002A1DD01349BF
:1029F0000B68002B19D0013B0B60002B15D1104B3D
:102A00001A60D0220F4B12061B78126893420DD029
:102A10005A1E934130225B4213400B4A9446802257
:102A200063449201134302221A6010BD074B1878C9
:102A300004F0E6FEF9E7C046E42B0020E82B002076
:102A4000003F002020EA00201C41014028EA00202D
:102A50000F4B104A10B55A60D0220F4B12061B784C
:102A6000126893420FD05A1E934130225B421340AA
:102A70000A4A9446802263449201134302221A6058
:102A80000021074810BD074B187804F0B9FEF7E79E
:102A9000003F0020E129001020EA00201C410140F5
:102AA00050C3000028EA002070B5D0252D062B6801
:102AB00030245A1E93411A4A022694465B42234010
:102AC0006344DB6A1E4200D170BD0022022118203F
:102AD00004F09EFD2B685A1E9341124A5B429446B5
:102AE000C02223409201634413431E600E4B1A68B8
:102AF0000E4B1A600E4B2A681B7893420BD05A1E5D
:102B000093415B421C40074B9C46802364449B01DD
:102B10001C432660D8E7074B187804F071FED3E712
:102B2000004101401C410140E42B0020003F0020F7
:102B300020EA002028EA002010B50400FDF793FBEE
:102B4000002800D010BD2100014819F071FBF9E701
:102B5000D42B0020D02370B51B061A68404B84B0DC
:102B600040481A7006F0BAF93F4803F0B7FF012257
:102B700000213E4805F006F905F080FB060005F04F
:102B8000DFFE002304000D00394A12196B419942FF
:102B900038D835D00121029100210191354930000A
:102BA000009105F06FFB344C206000283FDB802053
:102BB000324D40222900800104F0ACFD01220221A7
:102BC000182004F025FD0D20012104F007FE0BF074
:102BD000E1FC002005F0BEF8002817DBFF23284C9D
:102BE00028492070184004F031FE0121207804F0BB
:102BF000F5FD2078FF2105F01FF8002004B070BD1E
:102C00009042C7D901225242D317C3E72668002E4B
:102C10001DDA00220221182004F0FAFC802029008D
:102C2000800104F099FD164C2078002802D1022082
:102C30004042E3E7002104F0D1FD2078114904F07F
:102C400021FF207805F078F800232370EFE705F0E6
:102C500015FB310005F0E0FB01235B422360D8E760
:102C600020EA0020DC2B0020EC2B0020D42B0020BD
:102C700050C30000512A001014190020A92A001086
:102C800028EA00209529001070B5144C2568002D05
:102C900007DB05F0F3FA290005F0BEFB01235B42D8
:102CA000236000220221182004F0B2FC80200C498D
:102CB000800104F051FD0B4C2078002800D170BD3C
:102CC000002104F08BFD2078074904F0DBFE20781A
:102CD00005F032F800232370F1E7C04614190020F4
:102CE000A92A001028EA00209529001010B5012219
:102CF0000221182004F08CFC10BDC046D02210B573
:102D00000D4B120618600D4B12681B7893420DD0C4
:102D10005A1E934130225B421340094A9446802256
:102D200063449201134302221A6010BD054B1878C8
:102D300004F066FDF9E7C046003F002020EA0020CD
:102D40001C41014028EA002010B5024819F048FA59
:102D500010BDC046DC2B002010B5144C6379012B4C
:102D600003D0200019F06CFA10BD114B1A68002A2C
:102D7000F7D0104A12681A60D0220F4B12061B7847
:102D8000126893420DD05A1E934130225B42134089
:102D90000A4A9446802263449201134302221A6035
:102DA000DFE7074B187804F02BFDDAE7DC2B002077
:102DB000003F0020E42B002020EA00201C410140BD
:102DC00028EA0020F8B5040005F0BAFDFA22060052
:102DD0000F00200000230021920008F0E9FA80197A
:102DE000794104000D008F4210D80DD0FDF73BFA59
:102DF000002804D02000290005F0ACFDF8BD20001B
:102E0000290005F059FCF9E78642EFD90124644214
:102E1000E517EBE770B5060005F092FD34000200FF
:102E20000B000025A4185D41A94210D80DD0FDF774
:102E30001AFA002804D02000290005F08BFD70BD8F
:102E40002000290005F038FCF9E7A042EFD9012461
:102E50006442E517EBE7C0467047C04610B502482C
:102E600000F0E0F810BDC04678E8002010B5082258
:102E7000014908F079FB10BD78E8002030B54B1E01
:102E8000012900D1A7E0664A11780D112C003034D9
:102E90009F2900D9A2E00470012B00D1BEE00F21D0
:102EA000147821400C003034092900DD98E044708A
:102EB000022B00D1B2E054782511290030319F2C2B
:102EC00000D990E08170032B00D1A7E00F212140B1
:102ED0000C003034092900DD87E0C470042B00D1D8
:102EE0009CE094782511290030319F2C00D97FE097
:102EF0000171052B00D191E00F2121400C003034ED
:102F0000092900DD76E04471062B00D186E0D478F3
:102F10002511290030319F2C00D96EE08171072BDB
:102F200000D17BE00F2121400C003034092966DC00
:102F3000C471082B00D171E01479251129003031BA
:102F40009F2C5FD80172092B68D00F2121400C0003
:102F50003034092958DC44720A2B5FD0547925118A
:102F6000290030319F2C52D881720B2B56D00F2163
:102F700021400C00303409294BDCC4720C2B4DD09D
:102F800094792511290030319F2C00D90731017324
:102F90000D2B43D00F2121400C003034092901DDD5
:102FA00037310C0044730E2B38D0D1790C1122002C
:102FB00030329F2900D9073282730F2B2ED00F2277
:102FC0000A4011003731092A01DC30321100C17387
:102FD000102B23D010300023037030BD07345AE784
:102FE00037310C0063E707316CE737310C0074E7C9
:102FF00007317DE737310C0085E707318EE7373140
:103000000C0095E707319DE737310C00A3E7073146
:10301000AAE737310C00C4720C2BB1D1C018DAE723
:1030200078E8002030B5002589B00400092200218D
:1030300001A8009508F092FA0922002105A804953C
:1030400008F08CFA4B236A466846137004A90D22D7
:1030500019F096F8152108222000694408F084FA36
:1030600009B030BDEFF3108072B6034A1368002B2D
:10307000FCD0BFF35F8F70472C0100D0BFF35F8F90
:103080000022024B1A6080F3108870472C0100D098
:1030900070B5EFF3108C72B60D4D2B68002BFCD081
:1030A000BFF35F8F0724CB08C618C05C01230C4018
:1030B000A3401C000440034207D103433370BFF315
:1030C0005F8F2C608CF3108870BD100006F02AF81A
:1030D0002C0100D0F8B54746CE46884680B5EFF3C0
:1030E000108C72B6214D2C68002CFCD0BFF35F8F82
:1030F0009A422CD8D4080727055D061901241740E9
:10310000BC402C421FD007210127894609E0D40882
:10311000055D06194C4639001440A1400C002942B7
:1031200011D001329342F2D201204042BFF35F8FAF
:1031300000220E4B1A608CF3108800280FDBC0BCF5
:10314000B946B046F8BD2C4310003470EEE7BFF32B
:103150005F8F00232B608CF3108801204042434690
:10316000002BECD0089805F0DDFFC0462C0100D004
:1031700030B5EFF3108C72B60A4C2368002BFCD0EC
:10318000BFF35F8F07230122CD0819408A40435DBA
:1031900093434355BFF35F8F002323608CF3108864
:1031A00030BDC0462C0100D0024B18688007C00F0C
:1031B0007047C04600C006400021044B044ABFF3DC
:1031C0005F8F02C39342FAD17047C046000100D01E
:1031D000800100D0044A1078431CDBB2172B00D9C1
:1031E000102313707047C0461819002000B5054B16
:1031F00083B00100009318221F230348FFF76AFFE2
:1032000003B000BDF8CB0110A42B0020142310B58F
:103210000100188804331B88984710BD162310B589
:103220000100188802331B88984710BDF8B547463F
:10323000CE4680B50F1E19D01423994604330400DE
:103240000025012698464B461888434621681B886E
:10325000984701C4431E9841013540420640AF42A1
:10326000F1D13000C0BCB946B046F8BD0126F8E740
:1032700010B5052006F0D2F8030C6420034958432A
:1032800007F016FD0338FDD210BDC0469A3B000082
:10329000F0B54646D6464F46C0B5664E050082B0EC
:1032A000310065480AF0DEFF002809D1310063488B
:1032B0000AF0D8FF002800D1B4E006225F4801E000
:1032C00007225D488427FF235D4C3F010021EC511C
:1032D00020602372E37122710AF0A6FF40B2A07150
:1032E000002800DAA1E0310020680AF0EFFF40B2C8
:1032F000421D60711203C00110433023514AC82798
:103300000240924601225048BC46016880278B4308
:103310004E49BF020B6003681000984308602068A4
:10332000802301009B0138310B438021490419603F
:103330000621B846615691464B005B18DB00C31866
:103340009C44674642463A60CC2294469C4462467E
:10335000574617601A00C027D032BF0217603C4A98
:10336000DC331A604B461D2200930BF071F81820D5
:10337000217904F009F91D20217904F005F90122D1
:103380000021182004F018F90121182004F02CF96C
:103390000622A256002053009B182268DB009446A8
:1033A0002C4A6344D8331A600BF0E4F8E071002033
:1033B0000BF0E0F8E27943B223727F2A08D80020AC
:1033C000002B05DB02B0E0BCBA46B146A846F0BD12
:1033D00084231B01EC58002C24D0062161560029BF
:1033E0000CDB0522A256531C05D0310020680AF0E0
:1033F000D1FF0621615620680AF006FF07202056FB
:10340000002803DB0BF0AEF8FF23E3710820205601
:10341000002803DB0BF0A6F8FF232372842300228D
:103420001B01EA5006204042CCE7EC59002CD4D1D5
:10343000F8E7C04630CC01100000305000002050AA
:103440006C2B0020FFFFFF9F78C0014078D0014027
:1034500018771C2401E00000F0B557464E4645465B
:10346000DE46E0B58A469046994685B0002900D1EF
:10347000A8E084231B01C5588022D02392041B0698
:103480009A611820297904F07FF84B46002B00D070
:10349000A9E0012406212200695605278A402868F0
:1034A0000368934303604B005B18DB00C618CC36FF
:1034B000EF573268029394467A1C12030392C64A6D
:1034C000FF01934662465B461A401300039A1A4373
:1034D0003A4332608022029B5201D033C318134317
:1034E000802212061A601A6080235B041A000AF018
:1034F0006BFF06222600AA562968131D9E40330042
:103500000868260003430B60130008339E40330015
:103510000868072603430B6043469000DB00081849
:10352000013B036153009B18DB00AC4ACB18D83336
:103530001A604A460261AA4A1A601F22687902404C
:103540001A60AE57A022B440A64BD205D4508022B8
:10355000A54BB701FC185204236818001040134211
:10356000FAD1A24BF602994201D08020C002A04BB2
:103570000C001E4043469A08A023DB059C46534698
:10358000674410343B607C60BA6080223043994EBF
:1035900052043043F86001208A600B6803430B60DB
:1035A0008B681342FCD006210122695628688A40A4
:1035B00003689343036000231822009301330AF049
:1035C00047FFE9E04B46002B00D101E184231B01BA
:1035D000C5588022D02392041B069A6118202979AD
:1035E00003F0D2FFCA4601240621220069560527AE
:1035F0008A4028680368934303604B005B18DB0034
:10360000C618CC36EF573268029394467A1D1203DF
:103610000392714AFF01934662465B461A401300CB
:10362000039A1A433A4332608022029B5201D033FC
:10363000C3181343802212061A601A6080235B04A9
:103640001A000AF0C1FE06232100EB562E689C46A4
:10365000043399400B003268210013433360634602
:10366000083399400B00326840461343336062468A
:1036700043469200DB00B218013B136163465B00D6
:103680006344DB005549F318D83319600E99A0271D
:10369000091AC90001391161514AFF051A601F2238
:1036A00069790A401A600723EB561A009C404D4B7B
:1036B0009101FC5014008022A3464B4B5204C818C1
:1036C00003681342FCD15846082201230290AA56EF
:1036D000444893403B50930118008346039302985B
:1036E000414B80245B4483466404186807002740EC
:1036F0002042FAD15B463D48DB02864265D08027F6
:10370000C024FF02E4023A48D20203401F43394B6F
:1037100002401F4343469B080293A023DB059B46C0
:10372000534659440B6010239A46B2445346300026
:103730004B60029B22438B60CF602F4920300A43AD
:103740000E998908CB1A03995944086048464044A9
:1037500048608B60CA60012361468B403268134326
:1037600033600722254B80219C46AA5649049201CA
:10377000624413680B42FCD10822204B80219C46F6
:10378000AA5649049201624413680B42FCD10021FD
:103790004246484607F0E2FE062169562B684A0079
:1037A0005218D2009B18164AD8331A60D0238022B0
:1037B0001B0692045A61FFF75BFD002005B0F0BCC8
:1037C000BB46B246A946A046F0BD8024A4029AE7B3
:1037D00005204042F2E7C0467F00FEFF2060000067
:1037E00040600000440400000C0000500000205025
:1037F000FD7F00FF1900400029004000100000502C
:1038000003A0000010B5172003F0CAFFD0248023C6
:1038100024061B04002201216362172003F0CCFE62
:10382000182003F0BDFF80235B0463621920A361AD
:1038300003F0B6FF80239B046362636110BDC04642
:1038400070B5D024802524062D04A561142004F031
:1038500089FF6561FA2004F085FF182003F0A0FFBE
:1038600080235B04A36270BD002300B585B0039381
:103870000A4BD2021A40082309070A430849009359
:10388000114302AB49BA042202910021FFF7E4FD83
:10389000002801D1039840BA05B000BD00F8FF0F21
:1038A0000400004010B586B0012916D0154BD20295
:1038B0001A40082309070A43134903AC0A43039239
:1038C0000093042223000021FFF7C6FD01230028F6
:1038D00001D19B00E05806B010BD0A4BD2021A403D
:1038E0000A4B03AC1A430C230392009304222300D7
:1038F0000021FFF7B1FD0028EDD102239B00E05825
:10390000E9E7C04600F8FF0F04000040080000503F
:1039100010B586B0012916D0154BD2021A400823E3
:1039200009070A43134903AC0A4303920093042294
:1039300023000021FFF790FD0123002801D19B0007
:10394000E05806B010BD0A4BD2021A400A4B03AC35
:103950001A430C2303920093042223000021FFF753
:103960007BFD0028EDD102239B00E058E9E7C0462B
:1039700000F8FF0F020000400600005010B586B0AE
:10398000012916D0154BD2021A40082309070A4311
:10399000134903AC0A43039200930422230000213D
:1039A000FFF75AFD0123002801D19B00E05806B023
:1039B00010BD0A4BD2021A400A4B03AC1A430C2327
:1039C00003920093042223000021FFF745FD002805
:1039D000EDD102239B00E058E9E7C04600F8FF0F55
:1039E0000100004005000050F0B55BBAD6464F46D6
:1039F0004646C0B584B003938423614CD202224072
:103A000009070A435F491B01C4581143D02349BA2F
:103A1000802201261B06920402919A6118202179C6
:103A200003F0B2FD062132006156CC278A4020689F
:103A3000BC460368544F934303600523E35602AD2D
:103A400098464B005B18DB00C2189444624612682B
:103A5000D033914642460132120392464A461740FD
:103A600052463A434746FF013A4367463A6080224E
:103A7000C31852011343802212061A601A60802371
:103A80005B041A000AF0A0FC062137006156226888
:103A90000B1D9F403B0010683700034313600B0071
:103AA00008339F403B0010680727034313603F2300
:103AB0008800101803614B005B18DB003349D318F2
:103AC000D833196000210161314919601F216079E3
:103AD00001401960E757A021BE402E4BC905CE50CA
:103AE000BB019C4680212C4E490466443368180073
:103AF00008400B42FAD1294BFF029A4201D08020A4
:103B0000C002274B11001F40A023DB056344103186
:103B10001D6059600221996080213843214F49047A
:103B20003843D860012091601368034313609368A1
:103B30000B42FCD006210122615620688A400368AE
:103B40009343036000231822009301330AF080FCA2
:103B50000621615623684A005218D2009B18124A67
:103B6000D8331A60D02380221B0692045A61FFF7D3
:103B70007FFB002004B0E0BCBA46B146A846F0BDC9
:103B800000F8FF0F040000C07F00FEFF206000006F
:103B900040600000440400000C0000500000205071
:103BA000FD7F00FF1900400003A00000F0B5D646DD
:103BB0004F464646C0B5694CD20222400C0722430C
:103BC000674C84B0224302AD02926B6001290AD196
:103BD00008246449445064494250644A8350852310
:103BE00082681B01C25084231B01C4588022D02349
:103BF00001261B0692049A611820217903F0C4FC67
:103C0000062132006156CC278A402068BC460368F2
:103C1000574F934303600523E35698464B005B18C8
:103C2000DB00C218944462461268D0339146424683
:103C30000132120392464A46174052463A434746DB
:103C4000FF013A4367463A608022C318520113438A
:103C5000802212061A601A6080235B041A000AF0A0
:103C6000B3FB06213700615622680B1D9F403B00C5
:103C700010683700034313600B0008339F403B007C
:103C800010680727034313603F238800101803615F
:103C90004B005B18DB003749D318D833196000217B
:103CA0000161354919601F21607901401960E757AA
:103CB000A021BE40314BC905CE50BB019C4680219E
:103CC0002F4E490466443368180008400B42FAD16D
:103CD0002C4BFF029A4201D08020C0022A4B1100D7
:103CE0001F40A023DB05634410311D605960022191
:103CF000996080213843254F49043843D86001201A
:103D0000916013680343136093680B42FCD0062153
:103D10000122615620688A400368934303600023B0
:103D20001822009301330AF093FB062161562368A1
:103D30004A005218D2009B18154AD8331A60D02373
:103D400080221B0692045A61FFF792FA002004B009
:103D5000E0BCBA46B146A846F0BDC04600F8FF0F29
:103D6000040000C04C08000044080000480800009F
:103D70007F00FEFF2060000040600000440400005F
:103D80000C00005000002050FD7F00FF1900400093
:103D900003A00000F0B5D6464F464646C0B5694C74
:103DA000D20222400C072243674C84B0224302AD6A
:103DB00002926B6001290AD1082464494450644985
:103DC0004250644A8350852382681B01C250842379
:103DD0001B01C4588022D02301261B0692049A613D
:103DE0001820217903F0D0FB062132006156CC2740
:103DF0008A402068BC460368574F934303600523FD
:103E0000E35698464B005B18DB00C21894446246A8
:103E10001268D033914642460132120392464A4616
:103E2000174052463A434746FF013A4367463A60D5
:103E30008022C31852011343802212061A601A60AE
:103E400080235B041A000AF0BFFA0621370061568E
:103E500022680B1D9F403B0010683700034313602E
:103E60000B0008339F403B00106807270343136093
:103E70003F238800101803614B005B18DB003749B3
:103E8000D318D833196000210161354919601F2109
:103E9000607901401960E757A021BE40314BC90548
:103EA000CE50BB019C4680212F4E490466443368A6
:103EB000180008400B42FAD12C4BFF029A4201D065
:103EC0008020C0022A4B11001F40A023DB05634461
:103ED00010311D6059600221996080213843254FBF
:103EE00049043843D860012091601368034313608C
:103EF00093680B42FCD006210122615620688A405B
:103F000003689343036000231822009301330AF0EF
:103F10009FFA0621615623684A005218D2009B1866
:103F2000154AD8331A60D02380221B0692045A61A6
:103F3000FFF79EF9002004B0E0BCBA46B146A8469F
:103F4000F0BDC04600F8FF0F020000C04C080000A2
:103F500044080000480800007F00FEFF20600000C9
:103F600040600000440400000C000050000020509D
:103F7000FD7F00FF1900400003A00000F0B5D64609
:103F80004F464646C0B5694CD20222400C07224338
:103F9000674C84B0224302AD02926B6001290AD1C2
:103FA00008246449445064494250644A835085233C
:103FB00082681B01C25084231B01C4588022D02375
:103FC00001261B0692049A611820217903F0DCFA7D
:103FD000062132006156CC278A402068BC4603681F
:103FE000574F934303600523E35698464B005B18F5
:103FF000DB00C218944462461268D03391464246B0
:104000000132120392464A46174052463A43474607
:10401000FF013A4367463A608022C31852011343B6
:10402000802212061A601A6080235B041A000AF0CC
:10403000CBF906213700615622680B1D9F403B00DB
:1040400010683700034313600B0008339F403B00A8
:1040500010680727034313603F238800101803618B
:104060004B005B18DB003749D318D83319600021A7
:104070000161354919601F21607901401960E757D6
:10408000A021BE40314BC905CE50BB019C468021CA
:104090002F4E490466443368180008400B42FAD199
:1040A0002C4BFF029A4201D08020C0022A4B110003
:1040B0001F40A023DB05634410311D6059600221BD
:1040C000996080213843254F49043843D860012046
:1040D000916013680343136093680B42FCD0062180
:1040E0000122615620688A400368934303600023DD
:1040F0001822009301330AF0ABF9062161562368B8
:104100004A005218D2009B18154AD8331A60D0239F
:1041100080221B0692045A61FFF7AAF8002004B01F
:10412000E0BCBA46B146A846F0BDC04600F8FF0F55
:10413000010000C04C0800004408000048080000CE
:104140007F00FEFF2060000040600000440400008B
:104150000C00005000002050FD7F00FF19004000BF
:1041600003A00000F0B5C64600B504001D0082B0F3
:1041700001292ED01F0018230120984600261A4B33
:10418000D2021A4009073A430A4380210430C90584
:1041900080000A432018426003224346E91C9143F1
:1041A00004318919009120000021E3180132FFF742
:1041B00053F9061E13D12100089B1C31994203D0EC
:1041C0002A00180007F0D0F9300002B080BCB846D1
:1041D000F0BD1F1D1423002098460426CFE70100E0
:1041E000024807F0CBFBEFE700F8FF0F14CC0110FB
:1041F000F0B54E464546DE46574691469846DA1C8F
:104200000323E0B59A4389B005000E00039202290A
:1042100024D02800129B1C3098423FD019004346FE
:1042200036071E434B46244ADF0217403E43C02751
:104230003F063E434246AE6107F096F9290000234F
:10424000039A2800043218310093FFF705F909B0EA
:10425000F0BCBB46B246A946A046F0BD174B20278E
:104260009B460823164C9A4601E0013C10D35B465E
:1042700005935346042200930021280005ABFFF765
:10428000EBF8002800D106980742EED0002CC0D1F0
:104290000C4807F0D1FA06204042D8E74B46DF022F
:1042A0004346054A360717401E433E43C0273F0694
:1042B0003E43AE61C2E7C04600F8FF0F0440004035
:1042C000E703000030CE0110836870B5CC0B050009
:1042D000E403A3420BD063401A0E19D1FF2212044B
:1042E00013420CD1FF221202134201D1AC6070BD07
:1042F000012128000A4A230AFFF740FEF6E7230CB3
:1043000001212800074AFFF739FEAB686340E9E75F
:10431000230E0121044AFFF731FEAB686340DDE75D
:104320000A0001000B0001000C000100F0B5C646B8
:10433000033083089C4600B58E1E002B1DD00B0059
:1043400033435B0754D16346013B0A2B50D9C30862
:104350009846424630000B00D2008F1830CB30C058
:104360009F42FBD14346B4185F008A18BC4504D075
:10437000538810881B040343236008000B888A1DA0
:104380005BBA73808B1C1B680A301BBA736012689F
:1043900012BAB260006800BAF060452B03D030005A
:1043A00080BCB846F0BD082AF9D10B000A000C0009
:1043B000B232AE331B8810682E3425691A18AA420F
:1043C00022D83A31C918081881424AD2002700255C
:1043D00004E0DD2A1CD0C91888422CD94B7802335E
:1043E000CA189042F7D30A78302AF2D10D00F2E7CA
:1043F0006346320098003018938854881B04234386
:1044000008C28242F8D1B8E701235B42B360C6E735
:104410008A1C90468A78002ADDD142465278502A7A
:10442000D9D142469278F22AD5D14246D278012A91
:10443000D1D10F00CFE7002D10D006230422002F8A
:104440000AD0A28BD20601D5012213438422B15C8B
:10445000B1520432B354A2E71300F2E70223002260
:10446000EDE70023EDE7C046F8B5CE464746050028
:10447000894680B5002932D001230121204AFFF767
:104480007DFD0123012128001D4AFFF777FD03234D
:1044900003279846012640240BE00120FEF792FCFA
:1044A000013C330001212800154AFFF767FD002C6D
:1044B00010D001212800124AFFF760FA0028ECDB37
:1044C0003B0003404345E8D1FF28E6D0C0BCB946D5
:1044D000B046F8BD49460B4807F050FAF6E700230E
:1044E0000121074AFFF74AFD002301212800044A61
:1044F000FFF744FD0023012798460026CBE7C0467E
:104500001F00010044CC0110F0B5D6464F46464688
:10451000C0B5C37C05000F00924682B0002B04D1C9
:10452000006802F011FB002865D0280002F012FBA1
:10453000AB7C002B05D101212800FFF795FF01235B
:10454000AB74EB7C002B64D0FA24A40002E0013CA5
:10455000002C50D0082200212800FFF7A3F9431CAB
:10456000F5D0C30545D5C02203035B0D591ED2000B
:10457000914200D3B7E0820700D5B4E02C001C3490
:104580000022022128000094FFF7ECFD002828D12A
:10459000AB8BEA8B002B2AD00121E97466498C464B
:1045A00019005140614500D0A4E0D24392B2934239
:1045B00000D0A6E00B2B00D8A9E02422AA5CAA73A5
:1045C0002122A95C123A0A40022A17D90C2B00D1E9
:1045D000A9E0012A5BD0022A36D0002A47D00B205E
:1045E000404202B0E0BCBA46B146A846F0BD002A3F
:1045F000D2D10023EB7401204042F2E72521695C0F
:104600008C466646697B711AC9B21429DED86E736E
:10461000DCE7042200212800FFF77AF983B29846EC
:10462000464B000499461B88040C434502D0862360
:1046300023424DD14346002B4FD14B4642461A8070
:10464000A30600D580E7D6E7102B69D92322A95C01
:1046500002206118CA78920004328A18141B1C1BAD
:104660008B78DB071C4353463C601A60B9E71B2B71
:104670005FD92332AA5C2D8AA21851898D424CD170
:104680001032141B1C1B53463C601A60A9E7102B08
:104690004CD92322AA5CA218D1788900043152187F
:1046A000117B141B1B1B882934D1517B6C2931D100
:1046B000D17C002928D1117D102925D1517D1829BF
:1046C00022D1183B3B605346183201201A6088E71C
:1046D00021001B4807F052F9ACE704220021280012
:1046E000FFF758FBA9E7012301212800154AFFF72E
:1046F00045FC7EE71900144807F040F901204042CC
:104700006FE7022040426CE70A20404269E703203D
:10471000404266E70920404263E70620404260E7E6
:10472000072040425DE7042040425AE7082040420B
:1047300057E70520404254E7FFFF00000EEA002043
:1047400068CC01100D00010094CC0110F0B5DE46DC
:1047500057464E4645460400E0B585B09A46894620
:10476000934602F0F7F9A37C002B05D1012120002C
:10477000FFF77AFE0123A374A37B002B24D02C4ED9
:104780002C4FB36A98460EE0A17B002903D1207B11
:10479000637B83421CD14346ED1ABD423FD8FA20C9
:1047A0008000FEF7C9F9200003AA02A9B56AFFF745
:1047B000ABFE0128E8D103990298FFF7B7FD01008D
:1047C000200002F0CDF9DFE7207B637B8342D6D067
:1047D0005B4651460C339AB20A80D24308714A8034
:1047E000524649465171002251468A714946023962
:1047F0004D426941554649000C310130E9712A8129
:104800006A8102212073002220000095FFF7F0FC4E
:1048100005B0F0BCBB46B246A946A046F0BD637BDE
:10482000227B054807F0AAF801204042F0E7C04685
:104830000040054040420F00C0CC0110F0B5454695
:1048400057464E46DE4692461A0098468023E0B50B
:104850001C320500894683B01B019A421ED852467D
:10486000826242461204038A120CC2620D9A01331C
:104870009BB2120303820A431B0413430363002306
:10488000424643630C99383006F06EFE2B004246D8
:10489000002128001C331032FFF758FF274E284A0A
:1048A000B76AB36ADB1B93422ED8264B9B4610E0B7
:1048B000022820D0002803DB0100584607F05EF8EC
:1048C000FA208000FEF738F9B36A1D4ADB1B9342D9
:1048D0001AD86946280001AAFFF716FE041E23D045
:1048E0000128E5D101990098FFF720FD010028007B
:1048F00002F036F9E4E70099019B4A002868520863
:10490000C90F02F027F8DBE7434652464946012427
:104910000D4807F033F86442200003B0F0BCBB46FA
:10492000B246A946A046F0BD009A424500D942468B
:1049300001990C9817F094FCEEE7C0460040054042
:104940003F420F00E4CC011010CD0110F0B54546F8
:1049500057464E46DE4692461A0098468023E0B5FA
:104960001C320500894683B01B019A421BD852466F
:10497000038A826201339BB2038242461B040B43CB
:10498000036300231204120CC262436342460C9973
:10499000383006F0E9FD2B004246002128001C3388
:1049A0001032FFF7D3FE274E274AB76AB36ADB1BE4
:1049B00093422ED8254B9B4610E0022820D0002899
:1049C00003DB0100584606F0D9FFFA208000FEF70D
:1049D000B3F8B36A1C4ADB1B93421AD86946280015
:1049E00001AAFFF791FD041E23D00128E5D101990A
:1049F0000098FFF79BFC0100280002F0B1F8E4E703
:104A00000099019B4A0028685208C90F01F0A2FFD3
:104A1000DBE743465246494601240D4806F0AEFF07
:104A20006442200003B0F0BCBB46B246A946A04693
:104A3000F0BD009A424500D9424601990C9817F002
:104A40000FFCEEE7004005403F420F00E4CC0110B0
:104A500010CD0110F8B5CE46474604000D0080B5D4
:104A6000012900D1D4E1D04B90279846FF01C02600
:104A700041462000FFF728FC3A0001212000FEF704
:104A80007DFFA3687605B34210D073401A0E00D0A4
:104A9000DBE0FF221204134200D0E3E0FF22120207
:104AA000134200D0EEE0C0235B05A3604146200026
:104AB000FFF70AFC3A0001212000FEF75FFFC02249
:104AC000A368520506009146934210D053401A0E37
:104AD00000D093E1FF221204134200D082E1FF22B2
:104AE0001202134200D075E1C0235B05A360F307F7
:104AF00000D495E1012D00D18FE1AC4DAC4E3100D9
:104B00002000FFF7E1FB03232A0001212000FFF72B
:104B100035FAC022A36852059146934210D0534003
:104B20001A0E00D04CE1FF221204134200D02EE1F5
:104B3000FF221202134200D021E1C0235B05A360D3
:104B400031002000FFF7C0FB2A0001212000FEF702
:104B500015FFC022A36852059146934210D05340DE
:104B60001A0E00D001E1FF221204134200D0F0E03F
:104B7000FF221202134200D0E3E0C0235B05A360D2
:104B800041462000FFF7A0FB3A00C0270023012187
:104B90002000FFF7F3F9A3687F05BB4210D07B40EC
:104BA0001A0E00D0C4E0FF221204134200D0B3E07A
:104BB000FF221202134200D0A6E0C0235B05A360CF
:104BC000C0270120FEF7FEF831002000FFF77CFB34
:104BD00001232A0001212000FFF7D0F9A3687F05F7
:104BE000BB420FD07B401A0E00D084E0FF2212049B
:104BF000134200D073E0FF221202134267D1C02398
:104C00005B05A36031002000FFF75EFB2A00C02592
:104C100001212000FEF7B2FEA3686D05AB420DD066
:104C20006B401A0E4AD1FF22120413423AD1FF22DE
:104C3000120213422ED1C0235B05A3600120FEF7B0
:104C4000C1F8C0BCB946B046F8BD1823594A012185
:104C50002000FFF793F9FF22A36812047340134268
:104C600000D11BE7C023544A5B0101212000FFF75C
:104C700085F9C023A2685B055340FF22120213424C
:104C800000D110E7C023012120004C4A5B03FFF74D
:104C900075F908E7C02301212000484A5B03FFF7AC
:104CA0006DF9C8E7C023444A5B0101212000FFF7EA
:104CB00065F9C023A2685B055340B8E718230121BA
:104CC00020003C4AFFF75AF9A3686B40ABE7C023CA
:104CD00001212000394A5B03FFF750F98FE7C02319
:104CE000354A5B0101212000FFF748F9C023A26883
:104CF0005B0553407FE71823012120002D4AFFF771
:104D00003DF9A3687B4071E7C023012120002B4AB5
:104D10005B03FFF733F950E7C023274A5B0101210A
:104D20002000FFF72BF9C023A2685B0553403FE743
:104D30001823012120001F4AFFF720F9A3687B40B8
:104D400031E7C023012120001C4A5B03FFF716F95D
:104D500013E7C023184A5B0101212000FFF70EF979
:104D6000C023A2685B05534002E71823114A0121C2
:104D70002000FFF703F94B46A2685340F3E6C02337
:104D8000012120000D4A5B03FFF7F8F8D5E6C023A8
:104D9000094A5B0101212000FFF7F0F8C023A26857
:104DA0005B055340C4E6C0460048101808440000A4
:104DB000084410180C0001000B0001000A0001005B
:104DC0001823194A01212000FFF7D8F84B46A268A2
:104DD0005340A8E6C02301212000144A5B03FFF7DB
:104DE000CDF881E6C023124A5B0101212000FFF7C4
:104DF000C5F8C023A2685B05534070E618230A4A31
:104E000001212000FFF7BAF84B46A268534061E643
:104E1000E027084BBF01984629E6074D074E6EE68E
:104E2000074806F009FD65E60C0001000A000100D4
:104E30000B00010000381018083400000834101866
:104E40003CCD011080225200828184220023120175
:104E500001608360837303618350704770B51400F1
:104E600004AA2600050018001378802212361201C9
:104E700096421FD82A222026AE542A0000262A3223
:104E800056709170D670002B0DD1010028002200C1
:104E90002E3006F069FB2B00022128001C33A21DD6
:104EA000FFF754FC70BD29000023A2B22E310BF095
:104EB00031FAF0E705204042F4E7C04630B504007F
:104EC000174D83B06946200001AAFFF71DFB0100C2
:104ED000431C10D0031DF5D0012817D002280CD098
:104EE000280006F04BFD6946200001AAFFF70CFBE5
:104EF0000100431CEED103B030BD0099019B4A0074
:104F000020685208C90F01F025FDDBE701990098E0
:104F1000FFF70CFA0100200001F022FED2E7C046A4
:104F200058CD011030B50224150083B04A0849005D
:104F30002140069C009301942B00FFF77FFC03B0F7
:104F400030BDC04610B50400002909D0837C002B79
:104F500000D110BD002300218374FFF785FAF8E724
:104F600001F0F8FDA37C002BF3D101212000FFF715
:104F70007BFA0123A374ECE7F0B54E46DE465746B4
:104F80004546E0B5BE4B87B09B6A04004360894646
:104F9000FEF77EF9002812D1FEF734FC0A25FEF751
:104FA0004FFCB84E142200212000FEF75DFCB042F9
:104FB00013D00120013DFDF705FF002DF2D1B248CD
:104FC00006F03AFC06235B429846404607B0F0BC28
:104FD000BB46B246A946A046F0BD002200212000F3
:104FE000AA4BFEF701FD0028E9D100220021200094
:104FF000FEF758FC04231D2200212000FEF7BEFF0F
:105000000028DCD19923042200212000FEF7B6FFFE
:105010000028D4D1BE23062200212000FEF7BAFECC
:105020008046031ECBD101212000994A0833FEF7A8
:10503000A5FF0A25402601212000954AFEF79EFC87
:1050400006420CD10120013DFDF7BCFE002DF2D13E
:10505000904806F0F1FB06235B429846B5E7002333
:105060008B4A01212000FEF789FF20008A49FFF7C3
:105070002BF9E022C025012120009201FEF77EFCE1
:10508000A3686D05AB4213D06B401A0E01D000F03F
:1050900017FDFF221204134201D000F004FDFF228D
:1050A0001202134201D000F0F5FCC0235B05A3609F
:1050B00020007949FFF708F9E02201212000920140
:1050C000FEF75CFCC026A36805007605B34213D04A
:1050D00073401A0E01D000F0D3FCFF2212041342D9
:1050E00001D000F0C0FCFF221202134201D000F0F8
:1050F000B1FCC0235B05A360EB0701D400F077FD92
:1051000020006649FFF7E0F89022C0250121200029
:10511000D201FEF733FCA3686D05AB4213D06B40A0
:105120001A0E01D000F08CFCFF221204134201D0B1
:1051300000F079FCFF221202134201D000F06AFC59
:10514000C0235B05A36020005449FFF7BDF89022FF
:1051500001212000D201FEF711FCC026A368050042
:105160007605B34213D073401A0E01D000F048FC0C
:10517000FF221204134201D000F035FCFF2212027C
:10518000134201D000F026FCC0235B05A360EB07AF
:1051900001D400F036FDC02502212000FFF75AFCA3
:1051A000A3686D05AB4212D06B401A0E01D000F01F
:1051B00007FCFF221204134201D000F0F4FBFF228F
:1051C0001202134200D0E5E3C0235B05A360C025B3
:1051D000032301212000324AFEF7E8FCA3686D0595
:1051E000AB4210D06B401A0E00D0CAE3FF2212046B
:1051F000134200D0B9E3FF221202134200D0ACE305
:10520000C0235B05A360C025002301212000254A9F
:10521000FEF7CCFCA3686D05AB4210D06B401A0EB4
:1052200000D091E3FF221204134200D080E3FF225A
:105230001202134200D056E3C0235B05A3601A4B51
:105240001A499B461A4B1B4A59444E785B449A5C58
:1052500036021643FA225200964201DB00F0CCFCE3
:10526000154A9B5C002B01D000F0C6FC502E01DCDF
:1052700000F0C2FC114B124F50259A465F4426E0C5
:1052800000400540ADBEEDFE7CCD0110B304020030
:105290000E000100E4CD011000381018004810186D
:1052A00010C0000044C0000064DF0110AC6B0300BC
:1052B0009E6803000E0300000D0300009CCD01104A
:1052C000AB6B03000135AE4201DC00F095FC092216
:1052D0005146781B16F0CAFD0028F3D140235B42EB
:1052E0005B4400279A463D00A368EE0B4037F60367
:1052F0009E420ED073401A0E00D026E2FF22120406
:10530000134200D02EE2FF221202134200D015E217
:10531000A66053466A04DB19009301214023200054
:10532000520CFEF765FF002803D1DB239B029F424E
:10533000D9D1C0239B0000269A46794F794D0DE0C4
:10534000FEF7C2FF6A04002301212000520C0097DF
:10535000FEF74EFF002814D1403540374036290073
:1053600020005645ECD8FEF7AFFF6A044023012128
:105370002000520C0097FEF73BFF002801D1564554
:10538000EAD1F025A368ED02AB4210D06B401A0EB3
:1053900000D09FE2FF221204134200D08FE2FF22CE
:1053A0001202134200D082E2F023DB02A360C02588
:1053B0005D4B012120005D4AFEF7F8FBA3686D05F7
:1053C000AB4210D06B401A0E00D067E2FF221204ED
:1053D000134200D056E2FF221202134200D049E2EB
:1053E000C0235B05A36001212000FFF733FB2000F1
:1053F0004F49FEF769FF012120004E4AFEF7BEFA31
:10540000C026A36805007605B34210D073401A0E7B
:1054100000D026E2FF221204134200D015E2FF2240
:105420001202134200D008E2C0235B05A3600320F0
:105430002840012802D0404806F0FEF920003F49EC
:10544000FEF742FFE022012120009201FEF796FACA
:10545000C026A36805007605B34210D073401A0E2B
:1054600000D0E1E1FF221204134200D0D0E1FF227C
:105470001202134200D0C3E1C0235B05A360EB0717
:1054800000D5B9E1FA258026AD0006E00120013DF6
:10549000FDF798FC002D00D16AE301212000284A85
:1054A000FEF76CFA0642F1D0C025A3686D05AB4249
:1054B00010D06B401A0E00D051E3FF2212041342A9
:1054C00000D040E3FF221202134200D033E3C02396
:1054D0005B05A360C025F02301212000194AFEF7D7
:1054E00065FBA3686D05AB4210D06B401A0E00D06F
:1054F00018E3FF221204134200D007E3FF22120236
:10550000134200D0FAE2C0235B05A360FA252023F2
:10551000012120000C4AFEF731FD2026AD001CE0E1
:10552000F8CF0110FCFC0700C0003FFFFCFF0000AB
:105530000834101808340000D0CD011000381018BD
:105540000E00010024A00000080001000120013D20
:10555000FDF738FC002D00D112E3082200212000C5
:10556000FEF7A0F90642F1D00121E34A2000FEF740
:1055700005FAC3B2022001210343DF4A2000FEF7EF
:10558000FDFC0823F02200212000FEF7F7FC022397
:105590000121DA4A2000FEF7F1FC01212000D84A5F
:1055A000FEF7ECF9C30700D49FE20F230121D54A8F
:1055B0002000FEF7E3FC00230121D24A2000FEF781
:1055C000DDFC0121CF4A2000FEF7D8F9042200219A
:1055D0002000FEF79DF9C30700D57FE2C025A36830
:1055E0006D05AB4210D06B401A0E00D0FBE0FF22DD
:1055F0001204134200D0EAE0FF221202134200D04C
:10560000DDE0C0235B05A360C02501212000BE4A68
:10561000FEF748F9A3686D05AB4210D06B401A0E37
:1056200000D0C3E0FF221204134200D0B2E0FF22F8
:105630001202134200D0A5E0C0235B05A360200046
:1056400001F088FAA37C002B00D194E0AF4F250035
:105650003900383508220831280005F085FFAC4BA9
:10566000F622DB2123642000002392008902626479
:10567000A36459444C3005F077FFFC2308229B00BB
:105680000221FF3220000095FFF760F93900132254
:105690001431280005F068FF832213230021200025
:1056A00000955200FFF752F9A36B002B00D011E2D6
:1056B0000B229849280005F057FF002643230822B3
:1056C000E6540133E6540133E65401330221E65433
:1056D000FF32373B200001960095FFF7AFF8062216
:1056E0008D49280005F040FF3E230122E2540822A4
:1056F0000133E6540133E6540133E6540221373BCB
:10570000200001960095FF32FFF798F84B46002BDA
:1057100000D13DE2200049460622463016F0A0FDA9
:105720000E2228007D4905F01FFF082214230221C4
:1057300020000095FF32FFF709F946E4012120001F
:10574000774A330AFEF71AFCE2E50023754A012185
:105750002000FEF713FCFF22A368120473401342DB
:1057600000D1D0E5330C012120006F4AFEF706FC82
:10577000A3687340C7E501212000FEF775FE0123F1
:10578000A37463E7C02301212000654A5B03FEF791
:10579000F5FB51E7C023644A5B0101212000FEF7BD
:1057A000EDFBC023A2685B05534040E718230121AD
:1057B00020005C4AFEF7E2FBA3686B4032E7C0239F
:1057C00001212000564A5B03FEF7D8FB19E7C023EE
:1057D000554A5B0101212000FEF7D0FBC023A268DF
:1057E0005B05534008E71823012120004D4AFEF7CE
:1057F000C5FBA3686B40FAE64C4806F01DF841E68D
:10580000C02301212000464A5B03FEF7B7FB33E6C5
:10581000C023454A5B0101212000FEF7AFFBC023F6
:10582000A2685B05534022E61823012120003D4A6F
:10583000FEF7A4FBA368734014E6C02301212000F7
:10584000374A5B03FEF79AFBEEE5C023364A5B015D
:1058500001212000FEF792FBC023A2685B055340A4
:10586000DDE51823012120002E4AFEF787FBA368FF
:105870007340CFE5C02301212000294A5B03FEF7D6
:105880007DFBADE5C023284A5B0101212000FEF726
:1058900075FBC023A2685B0553409CE518230121DA
:1058A0002000204AFEF76AFBA3686B408EE5F023D8
:1058B000012120001A4ADB00FEF760FB74E5072394
:1058C000194A01212000FEF759FBF023A268DB02F0
:1058D000534064E5002301212000124AFEF74EFBED
:1058E000A3686B4056E5C023012120000C4A5B03EE
:1058F000FEF744FBA0E4C0461E0001000E000100BC
:105900001F0001000F0001000885000084CF011076
:105910000610020058CE011064CE01106CCE0110AA
:105920000A0001000C0001000B000100D0CD0110A5
:10593000C023B64A5B0101212000FEF71FFBC023F4
:10594000A2685B05534072E4182301212000B04A8D
:10595000FEF714FBA3686B4064E4C0230121200020
:10596000AC4A5B03FEF70AFB4AE4C023A74A5B018B
:1059700001212000FEF702FBC023A2685B05534013
:1059800039E4182301212000A14AFEF7F7FAA368A1
:105990006B402BE4C023012120009E4A5B03FEF7ED
:1059A000EDFAFFF711FCC023984A5B0101212000AA
:1059B000FEF7E4FAC023A2685B055340FFF7FFFB44
:1059C000182301212000924AFEF7D8FAA3686B4001
:1059D000FFF7EFFBC023012120008E4A5B03FEF797
:1059E000CDFAFFF7D1FBC023884A5B0101212000DB
:1059F000FEF7C4FAC023A2685B055340FFF7BEFB65
:105A0000182301212000824AFEF7B8FAA3687340E8
:105A1000FFF7AEFBC023012120007E4A5B03FEF7A7
:105A2000ADFAFFF78DFBC023784A5B01012120000E
:105A3000FEF7A4FAC023A2685B055340FFF77AFB88
:105A4000182301212000724AFEF798FAA3686B40E0
:105A5000FFF76AFBC023012120006E4A5B03FEF7BB
:105A60008DFAFFF746FBC023684A5B010121200045
:105A7000FEF784FAC023A2685B055340FFF733FBAF
:105A8000182301212000624AFEF778FAA3687340C8
:105A9000FFF723FBC023012120005E4A5B03FEF7D2
:105AA0006DFAFFF702FBC023584A5B010121200079
:105AB000FEF764FAC023A2685B055340FFF7EFFAD4
:105AC000182301212000524AFEF758FAA3686B40C0
:105AD000FFF7DFFA504805F051FFE9E583B20422F1
